{
  "contractName": "DocumentRegistry",
  "abi": [
    {
      "anonymous": false,
      "inputs": [
        {
          "indexed": true,
          "internalType": "string",
          "name": "documentHash",
          "type": "string"
        },
        {
          "indexed": true,
          "internalType": "string",
          "name": "patientId",
          "type": "string"
        },
        {
          "indexed": false,
          "internalType": "string",
          "name": "ipfsCid",
          "type": "string"
        },
        {
          "indexed": false,
          "internalType": "string",
          "name": "fileName",
          "type": "string"
        },
        {
          "indexed": false,
          "internalType": "uint256",
          "name": "timestamp",
          "type": "uint256"
        }
      ],
      "name": "DocumentAdded",
      "type": "event"
    },
    {
      "inputs": [
        {
          "internalType": "string",
          "name": "_documentHash",
          "type": "string"
        },
        {
          "internalType": "string",
          "name": "_patientId",
          "type": "string"
        },
        {
          "internalType": "string",
          "name": "_ipfsCid",
          "type": "string"
        },
        {
          "internalType": "string",
          "name": "_fileName",
          "type": "string"
        }
      ],
      "name": "addDocument",
      "outputs": [],
      "stateMutability": "nonpayable",
      "type": "function"
    },
    {
      "inputs": [
        {
          "internalType": "string",
          "name": "_documentHash",
          "type": "string"
        }
      ],
      "name": "getDocument",
      "outputs": [
        {
          "components": [
            {
              "internalType": "string",
              "name": "documentHash",
              "type": "string"
            },
            {
              "internalType": "string",
              "name": "ipfsCid",
              "type": "string"
            },
            {
              "internalType": "string",
              "name": "fileName",
              "type": "string"
            },
            {
              "internalType": "string",
              "name": "patientId",
              "type": "string"
            },
            {
              "internalType": "uint256",
              "name": "timestamp",
              "type": "uint256"
            },
            {
              "internalType": "address",
              "name": "owner",
              "type": "address"
            }
          ],
          "internalType": "struct DocumentRegistry.DocumentMetadata",
          "name": "",
          "type": "tuple"
        }
      ],
      "stateMutability": "view",
      "type": "function",
      "constant": true
    },
    {
      "inputs": [
        {
          "internalType": "string",
          "name": "_patientId",
          "type": "string"
        }
      ],
      "name": "getDocumentHashesByPatient",
      "outputs": [
        {
          "internalType": "string[]",
          "name": "",
          "type": "string[]"
        }
      ],
      "stateMutability": "view",
      "type": "function",
      "constant": true
    },
    {
      "inputs": [
        {
          "internalType": "string",
          "name": "_patientId",
          "type": "string"
        }
      ],
      "name": "getAllDocumentsByPatient",
      "outputs": [
        {
          "components": [
            {
              "internalType": "string",
              "name": "documentHash",
              "type": "string"
            },
            {
              "internalType": "string",
              "name": "ipfsCid",
              "type": "string"
            },
            {
              "internalType": "string",
              "name": "fileName",
              "type": "string"
            },
            {
              "internalType": "string",
              "name": "patientId",
              "type": "string"
            },
            {
              "internalType": "uint256",
              "name": "timestamp",
              "type": "uint256"
            },
            {
              "internalType": "address",
              "name": "owner",
              "type": "address"
            }
          ],
          "internalType": "struct DocumentRegistry.DocumentMetadata[]",
          "name": "",
          "type": "tuple[]"
        }
      ],
      "stateMutability": "view",
      "type": "function",
      "constant": true
    }
  ],
  "bytecode": "0x608060405234801561001057600080fd5b5061187b806100206000396000f3fe608060405234801561001057600080fd5b506004361061004c5760003560e01c80630aadf21b146100515780630d0bef2f146100815780630e72ca7a146100b15780637ccb6a64146100cd575b600080fd5b61006b60048036038101906100669190610dd9565b6100fd565b6040516100789190610f63565b60405180910390f35b61009b60048036038101906100969190610dd9565b6101f4565b6040516100a8919061113f565b60405180910390f35b6100cb60048036038101906100c69190611161565b610674565b005b6100e760048036038101906100e29190610dd9565b6108e8565b6040516100f491906112d6565b60405180910390f35b606060018260405161010f9190611334565b9081526020016040518091039020805480602002602001604051908101604052809291908181526020016000905b828210156101e957838290600052602060002001805461015c9061137a565b80601f01602080910402602001604051908101604052809291908181526020018280546101889061137a565b80156101d55780601f106101aa576101008083540402835291602001916101d5565b820191906000526020600020905b8154815290600101906020018083116101b857829003601f168201915b50505050508152602001906001019061013d565b505050509050919050565b606060006001836040516102089190611334565b9081526020016040518091039020805480602002602001604051908101604052809291908181526020016000905b828210156102e25783829060005260206000200180546102559061137a565b80601f01602080910402602001604051908101604052809291908181526020018280546102819061137a565b80156102ce5780601f106102a3576101008083540402835291602001916102ce565b820191906000526020600020905b8154815290600101906020018083116102b157829003601f168201915b505050505081526020019060010190610236565b5050505090506000815167ffffffffffffffff81111561030557610304610cae565b5b60405190808252806020026020018201604052801561033e57816020015b61032b610c33565b8152602001906001900390816103235790505b50905060005b8251811015610669576000838281518110610362576103616113ab565b5b60200260200101516040516103779190611334565b90815260200160405180910390206040518060c00160405290816000820180546103a09061137a565b80601f01602080910402602001604051908101604052809291908181526020018280546103cc9061137a565b80156104195780601f106103ee57610100808354040283529160200191610419565b820191906000526020600020905b8154815290600101906020018083116103fc57829003601f168201915b505050505081526020016001820180546104329061137a565b80601f016020809104026020016040519081016040528092919081815260200182805461045e9061137a565b80156104ab5780601f10610480576101008083540402835291602001916104ab565b820191906000526020600020905b81548152906001019060200180831161048e57829003601f168201915b505050505081526020016002820180546104c49061137a565b80601f01602080910402602001604051908101604052809291908181526020018280546104f09061137a565b801561053d5780601f106105125761010080835404028352916020019161053d565b820191906000526020600020905b81548152906001019060200180831161052057829003601f168201915b505050505081526020016003820180546105569061137a565b80601f01602080910402602001604051908101604052809291908181526020018280546105829061137a565b80156105cf5780601f106105a4576101008083540402835291602001916105cf565b820191906000526020600020905b8154815290600101906020018083116105b257829003601f168201915b50505050508152602001600482015481526020016005820160009054906101000a900473ffffffffffffffffffffffffffffffffffffffff1673ffffffffffffffffffffffffffffffffffffffff1673ffffffffffffffffffffffffffffffffffffffff168152505082828151811061064b5761064a6113ab565b5b6020026020010181905250808061066190611409565b915050610344565b508092505050919050565b6002846040516106849190611334565b908152602001604051809103902060009054906101000a900460ff16156106e0576040517f08c379a00000000000000000000000000000000000000000000000000000000081526004016106d7906114ae565b60405180910390fd5b60004290506040518060c001604052808681526020018481526020018381526020018581526020018281526020013373ffffffffffffffffffffffffffffffffffffffff168152506000866040516107389190611334565b9081526020016040518091039020600082015181600001908161075b919061167a565b506020820151816001019081610771919061167a565b506040820151816002019081610787919061167a565b50606082015181600301908161079d919061167a565b506080820151816004015560a08201518160050160006101000a81548173ffffffffffffffffffffffffffffffffffffffff021916908373ffffffffffffffffffffffffffffffffffffffff1602179055509050506001846040516108029190611334565b908152602001604051809103902085908060018154018082558091505060019003906000526020600020016000909190919091509081610842919061167a565b5060016002866040516108559190611334565b908152602001604051809103902060006101000a81548160ff021916908315150217905550836040516108889190611334565b60405180910390208560405161089e9190611334565b60405180910390207f97d69687207f7498ceaa7feaa66733b7036e5857cd0bea0e76dbcc82a22d98418585856040516108d993929190611794565b60405180910390a35050505050565b6108f0610c33565b6002826040516109009190611334565b908152602001604051809103902060009054906101000a900460ff1661095b576040517f08c379a000000000000000000000000000000000000000000000000000000000815260040161095290611825565b60405180910390fd5b60008260405161096b9190611334565b90815260200160405180910390206040518060c00160405290816000820180546109949061137a565b80601f01602080910402602001604051908101604052809291908181526020018280546109c09061137a565b8015610a0d5780601f106109e257610100808354040283529160200191610a0d565b820191906000526020600020905b8154815290600101906020018083116109f057829003601f168201915b50505050508152602001600182018054610a269061137a565b80601f0160208091040260200160405190810160405280929190818152602001828054610a529061137a565b8015610a9f5780601f10610a7457610100808354040283529160200191610a9f565b820191906000526020600020905b815481529060010190602001808311610a8257829003601f168201915b50505050508152602001600282018054610ab89061137a565b80601f0160208091040260200160405190810160405280929190818152602001828054610ae49061137a565b8015610b315780601f10610b0657610100808354040283529160200191610b31565b820191906000526020600020905b815481529060010190602001808311610b1457829003601f168201915b50505050508152602001600382018054610b4a9061137a565b80601f0160208091040260200160405190810160405280929190818152602001828054610b769061137a565b8015610bc35780601f10610b9857610100808354040283529160200191610bc3565b820191906000526020600020905b815481529060010190602001808311610ba657829003601f168201915b50505050508152602001600482015481526020016005820160009054906101000a900473ffffffffffffffffffffffffffffffffffffffff1673ffffffffffffffffffffffffffffffffffffffff1673ffffffffffffffffffffffffffffffffffffffff16815250509050919050565b6040518060c001604052806060815260200160608152602001606081526020016060815260200160008152602001600073ffffffffffffffffffffffffffffffffffffffff1681525090565b6000604051905090565b600080fd5b600080fd5b600080fd5b600080fd5b6000601f19601f8301169050919050565b7f4e487b7100000000000000000000000000000000000000000000000000000000600052604160045260246000fd5b610ce682610c9d565b810181811067ffffffffffffffff82111715610d0557610d04610cae565b5b80604052505050565b6000610d18610c7f565b9050610d248282610cdd565b919050565b600067ffffffffffffffff821115610d4457610d43610cae565b5b610d4d82610c9d565b9050602081019050919050565b82818337600083830152505050565b6000610d7c610d7784610d29565b610d0e565b905082815260208101848484011115610d9857610d97610c98565b5b610da3848285610d5a565b509392505050565b600082601f830112610dc057610dbf610c93565b5b8135610dd0848260208601610d69565b91505092915050565b600060208284031215610def57610dee610c89565b5b600082013567ffffffffffffffff811115610e0d57610e0c610c8e565b5b610e1984828501610dab565b91505092915050565b600081519050919050565b600082825260208201905092915050565b6000819050602082019050919050565b600081519050919050565b600082825260208201905092915050565b60005b83811015610e88578082015181840152602081019050610e6d565b60008484015250505050565b6000610e9f82610e4e565b610ea98185610e59565b9350610eb9818560208601610e6a565b610ec281610c9d565b840191505092915050565b6000610ed98383610e94565b905092915050565b6000602082019050919050565b6000610ef982610e22565b610f038185610e2d565b935083602082028501610f1585610e3e565b8060005b85811015610f515784840389528151610f328582610ecd565b9450610f3d83610ee1565b925060208a01995050600181019050610f19565b50829750879550505050505092915050565b60006020820190508181036000830152610f7d8184610eee565b905092915050565b600081519050919050565b600082825260208201905092915050565b6000819050602082019050919050565b6000819050919050565b610fc481610fb1565b82525050565b600073ffffffffffffffffffffffffffffffffffffffff82169050919050565b6000610ff582610fca565b9050919050565b61100581610fea565b82525050565b600060c08301600083015184820360008601526110288282610e94565b915050602083015184820360208601526110428282610e94565b9150506040830151848203604086015261105c8282610e94565b915050606083015184820360608601526110768282610e94565b915050608083015161108b6080860182610fbb565b5060a083015161109e60a0860182610ffc565b508091505092915050565b60006110b5838361100b565b905092915050565b6000602082019050919050565b60006110d582610f85565b6110df8185610f90565b9350836020820285016110f185610fa1565b8060005b8581101561112d578484038952815161110e85826110a9565b9450611119836110bd565b925060208a019950506001810190506110f5565b50829750879550505050505092915050565b6000602082019050818103600083015261115981846110ca565b905092915050565b6000806000806080858703121561117b5761117a610c89565b5b600085013567ffffffffffffffff81111561119957611198610c8e565b5b6111a587828801610dab565b945050602085013567ffffffffffffffff8111156111c6576111c5610c8e565b5b6111d287828801610dab565b935050604085013567ffffffffffffffff8111156111f3576111f2610c8e565b5b6111ff87828801610dab565b925050606085013567ffffffffffffffff8111156112205761121f610c8e565b5b61122c87828801610dab565b91505092959194509250565b600060c08301600083015184820360008601526112558282610e94565b9150506020830151848203602086015261126f8282610e94565b915050604083015184820360408601526112898282610e94565b915050606083015184820360608601526112a38282610e94565b91505060808301516112b86080860182610fbb565b5060a08301516112cb60a0860182610ffc565b508091505092915050565b600060208201905081810360008301526112f08184611238565b905092915050565b600081905092915050565b600061130e82610e4e565b61131881856112f8565b9350611328818560208601610e6a565b80840191505092915050565b60006113408284611303565b915081905092915050565b7f4e487b7100000000000000000000000000000000000000000000000000000000600052602260045260246000fd5b6000600282049050600182168061139257607f821691505b6020821081036113a5576113a461134b565b5b50919050565b7f4e487b7100000000000000000000000000000000000000000000000000000000600052603260045260246000fd5b7f4e487b7100000000000000000000000000000000000000000000000000000000600052601160045260246000fd5b600061141482610fb1565b91507fffffffffffffffffffffffffffffffffffffffffffffffffffffffffffffffff8203611446576114456113da565b5b600182019050919050565b600082825260208201905092915050565b7f446f63756d656e74206861736820616c7265616479206578697374732e000000600082015250565b6000611498601d83611451565b91506114a382611462565b602082019050919050565b600060208201905081810360008301526114c78161148b565b9050919050565b60008190508160005260206000209050919050565b60006020601f8301049050919050565b600082821b905092915050565b6000600883026115307fffffffffffffffffffffffffffffffffffffffffffffffffffffffffffffffff826114f3565b61153a86836114f3565b95508019841693508086168417925050509392505050565b6000819050919050565b600061157761157261156d84610fb1565b611552565b610fb1565b9050919050565b6000819050919050565b6115918361155c565b6115a561159d8261157e565b848454611500565b825550505050565b600090565b6115ba6115ad565b6115c5818484611588565b505050565b5b818110156115e9576115de6000826115b2565b6001810190506115cb565b5050565b601f82111561162e576115ff816114ce565b611608846114e3565b81016020851015611617578190505b61162b611623856114e3565b8301826115ca565b50505b505050565b600082821c905092915050565b600061165160001984600802611633565b1980831691505092915050565b600061166a8383611640565b9150826002028217905092915050565b61168382610e4e565b67ffffffffffffffff81111561169c5761169b610cae565b5b6116a6825461137a565b6116b18282856115ed565b600060209050601f8311600181146116e457600084156116d2578287015190505b6116dc858261165e565b865550611744565b601f1984166116f2866114ce565b60005b8281101561171a578489015182556001820191506020850194506020810190506116f5565b868310156117375784890151611733601f891682611640565b8355505b6001600288020188555050505b505050505050565b600061175782610e4e565b6117618185611451565b9350611771818560208601610e6a565b61177a81610c9d565b840191505092915050565b61178e81610fb1565b82525050565b600060608201905081810360008301526117ae818661174c565b905081810360208301526117c2818561174c565b90506117d16040830184611785565b949350505050565b7f446f63756d656e74206861736820646f6573206e6f742065786973742e000000600082015250565b600061180f601d83611451565b915061181a826117d9565b602082019050919050565b6000602082019050818103600083015261183e81611802565b905091905056fea26469706673582212200c03c911cd933d107fc7d25c3225e0defa2ed126307bc1c1f0c04c4c5695476a64736f6c63430008110033",
  "immutableReferences": {},
  "source": "// SPDX-License-Identifier: MIT\r\npragma solidity ^0.8.17;\r\n\r\ncontract DocumentRegistry {\r\n\r\n    struct DocumentMetadata {\r\n        string documentHash; // SHA-256 hash of the document content\r\n        string ipfsCid;      // IPFS Content Identifier (storage pointer)\r\n        string fileName;\r\n        string patientId;    // Using string for simplicity, could be address or bytes32\r\n        uint256 timestamp;\r\n        address owner;       // Address that added the record\r\n    }\r\n\r\n    // Mapping from document hash to its metadata\r\n    mapping(string => DocumentMetadata) private documents;\r\n    // Mapping from patientId to an array of their document hashes\r\n    mapping(string => string[]) private patientDocuments;\r\n    // Keep track of existing hashes to prevent duplicates easily\r\n    mapping(string => bool) private documentHashExists;\r\n\r\n    event DocumentAdded(\r\n        string indexed documentHash,\r\n        string indexed patientId,\r\n        string ipfsCid,\r\n        string fileName,\r\n        uint256 timestamp\r\n    );\r\n\r\n    // Modifier to restrict access (optional, can be expanded)\r\n    modifier onlyServer() {\r\n        // For now, allow any address (replace with proper access control later)\r\n        _;\r\n    }\r\n\r\n    /**\r\n     * @dev Adds metadata of a new document to the registry.\r\n     * Enforces uniqueness based on the document hash.\r\n     */\r\n    function addDocument(\r\n        string memory _documentHash,\r\n        string memory _patientId,\r\n        string memory _ipfsCid,\r\n        string memory _fileName\r\n    ) public onlyServer {\r\n        require(!documentHashExists[_documentHash], \"Document hash already exists.\");\r\n\r\n        uint256 currentTime = block.timestamp;\r\n\r\n        documents[_documentHash] = DocumentMetadata({\r\n            documentHash: _documentHash,\r\n            ipfsCid: _ipfsCid,\r\n            fileName: _fileName,\r\n            patientId: _patientId,\r\n            timestamp: currentTime,\r\n            owner: msg.sender\r\n        });\r\n\r\n        patientDocuments[_patientId].push(_documentHash);\r\n        documentHashExists[_documentHash] = true;\r\n\r\n        emit DocumentAdded(_documentHash, _patientId, _ipfsCid, _fileName, currentTime);\r\n    }\r\n\r\n    /**\r\n     * @dev Retrieves metadata for a specific document hash.\r\n     */\r\n    function getDocument(string memory _documentHash) public view returns (DocumentMetadata memory) {\r\n        require(documentHashExists[_documentHash], \"Document hash does not exist.\");\r\n        return documents[_documentHash];\r\n    }\r\n\r\n     /**\r\n     * @dev Retrieves all document hashes associated with a patientId.\r\n     */\r\n    function getDocumentHashesByPatient(string memory _patientId) public view returns (string[] memory) {\r\n        return patientDocuments[_patientId];\r\n    }\r\n\r\n    /**\r\n     * @dev Retrieves metadata for all documents associated with a patientId.\r\n     * Note: This can be gas-intensive if a patient has many documents.\r\n     */\r\n    function getAllDocumentsByPatient(string memory _patientId) public view returns (DocumentMetadata[] memory) {\r\n        string[] memory hashes = patientDocuments[_patientId];\r\n        DocumentMetadata[] memory results = new DocumentMetadata[](hashes.length);\r\n\r\n        for (uint i = 0; i < hashes.length; i++) {\r\n            results[i] = documents[hashes[i]];\r\n        }\r\n\r\n        return results;\r\n    }\r\n}",
  "sourcePath": "C:\\Users\\gitan\\Documents\\FINAL YEAR PROJECT\\medimatenew\\MediMate-Project-main\\contracts\\DocumentRegistry.sol",
  "compiler": {
    "name": "solc",
    "version": "0.8.17+commit.8df45f5f.Emscripten.clang"
  },
  "schemaVersion": "3.4.16",
  "updatedAt": "2025-10-30T15:10:03.910Z",
  "networkType": "ethereum",
  "devdoc": {
    "kind": "dev",
    "methods": {
      "addDocument(string,string,string,string)": {
        "details": "Adds metadata of a new document to the registry. Enforces uniqueness based on the document hash."
      },
      "getAllDocumentsByPatient(string)": {
        "details": "Retrieves metadata for all documents associated with a patientId. Note: This can be gas-intensive if a patient has many documents."
      },
      "getDocument(string)": {
        "details": "Retrieves metadata for a specific document hash."
      },
      "getDocumentHashesByPatient(string)": {
        "details": "Retrieves all document hashes associated with a patientId."
      }
    },
    "version": 1
  },
  "userdoc": {
    "kind": "user",
    "methods": {},
    "version": 1
  }
}